{
  "contractName": "FinalFantasy7",
  "abi": [
    {
      "inputs": [],
      "stateMutability": "nonpayable",
      "type": "constructor"
    },
    {
      "anonymous": false,
      "inputs": [
        {
          "indexed": true,
          "internalType": "address",
          "name": "owner",
          "type": "address"
        },
        {
          "indexed": true,
          "internalType": "address",
          "name": "approved",
          "type": "address"
        },
        {
          "indexed": true,
          "internalType": "uint256",
          "name": "tokenId",
          "type": "uint256"
        }
      ],
      "name": "Approval",
      "type": "event"
    },
    {
      "anonymous": false,
      "inputs": [
        {
          "indexed": true,
          "internalType": "address",
          "name": "owner",
          "type": "address"
        },
        {
          "indexed": true,
          "internalType": "address",
          "name": "operator",
          "type": "address"
        },
        {
          "indexed": false,
          "internalType": "bool",
          "name": "approved",
          "type": "bool"
        }
      ],
      "name": "ApprovalForAll",
      "type": "event"
    },
    {
      "anonymous": false,
      "inputs": [
        {
          "indexed": true,
          "internalType": "address",
          "name": "owner",
          "type": "address"
        },
        {
          "indexed": false,
          "internalType": "uint256",
          "name": "Level",
          "type": "uint256"
        },
        {
          "indexed": false,
          "internalType": "uint256",
          "name": "Strength",
          "type": "uint256"
        },
        {
          "indexed": false,
          "internalType": "uint256",
          "name": "Magic",
          "type": "uint256"
        },
        {
          "indexed": false,
          "internalType": "uint256",
          "name": "Vitality",
          "type": "uint256"
        },
        {
          "indexed": false,
          "internalType": "uint256",
          "name": "Spirit",
          "type": "uint256"
        },
        {
          "indexed": false,
          "internalType": "uint256",
          "name": "Luck",
          "type": "uint256"
        },
        {
          "indexed": false,
          "internalType": "uint256",
          "name": "Speed",
          "type": "uint256"
        }
      ],
      "name": "CreatePlayer",
      "type": "event"
    },
    {
      "anonymous": false,
      "inputs": [
        {
          "indexed": true,
          "internalType": "address",
          "name": "previousOwner",
          "type": "address"
        },
        {
          "indexed": true,
          "internalType": "address",
          "name": "newOwner",
          "type": "address"
        }
      ],
      "name": "OwnershipTransferred",
      "type": "event"
    },
    {
      "anonymous": false,
      "inputs": [
        {
          "indexed": true,
          "internalType": "address",
          "name": "from",
          "type": "address"
        },
        {
          "indexed": true,
          "internalType": "address",
          "name": "to",
          "type": "address"
        },
        {
          "indexed": true,
          "internalType": "uint256",
          "name": "tokenId",
          "type": "uint256"
        }
      ],
      "name": "Transfer",
      "type": "event"
    },
    {
      "inputs": [
        {
          "internalType": "address",
          "name": "to",
          "type": "address"
        },
        {
          "internalType": "uint256",
          "name": "tokenId",
          "type": "uint256"
        }
      ],
      "name": "approve",
      "outputs": [],
      "stateMutability": "nonpayable",
      "type": "function"
    },
    {
      "inputs": [
        {
          "internalType": "address",
          "name": "owner",
          "type": "address"
        }
      ],
      "name": "balanceOf",
      "outputs": [
        {
          "internalType": "uint256",
          "name": "",
          "type": "uint256"
        }
      ],
      "stateMutability": "view",
      "type": "function",
      "constant": true
    },
    {
      "inputs": [
        {
          "internalType": "uint256",
          "name": "tokenId",
          "type": "uint256"
        }
      ],
      "name": "getApproved",
      "outputs": [
        {
          "internalType": "address",
          "name": "",
          "type": "address"
        }
      ],
      "stateMutability": "view",
      "type": "function",
      "constant": true
    },
    {
      "inputs": [
        {
          "internalType": "address",
          "name": "owner",
          "type": "address"
        },
        {
          "internalType": "address",
          "name": "operator",
          "type": "address"
        }
      ],
      "name": "isApprovedForAll",
      "outputs": [
        {
          "internalType": "bool",
          "name": "",
          "type": "bool"
        }
      ],
      "stateMutability": "view",
      "type": "function",
      "constant": true
    },
    {
      "inputs": [],
      "name": "name",
      "outputs": [
        {
          "internalType": "string",
          "name": "",
          "type": "string"
        }
      ],
      "stateMutability": "view",
      "type": "function",
      "constant": true
    },
    {
      "inputs": [],
      "name": "owner",
      "outputs": [
        {
          "internalType": "address",
          "name": "",
          "type": "address"
        }
      ],
      "stateMutability": "view",
      "type": "function",
      "constant": true
    },
    {
      "inputs": [
        {
          "internalType": "uint256",
          "name": "tokenId",
          "type": "uint256"
        }
      ],
      "name": "ownerOf",
      "outputs": [
        {
          "internalType": "address",
          "name": "",
          "type": "address"
        }
      ],
      "stateMutability": "view",
      "type": "function",
      "constant": true
    },
    {
      "inputs": [
        {
          "internalType": "uint256",
          "name": "",
          "type": "uint256"
        }
      ],
      "name": "players",
      "outputs": [
        {
          "internalType": "string",
          "name": "name",
          "type": "string"
        },
        {
          "internalType": "uint256",
          "name": "Level",
          "type": "uint256"
        },
        {
          "internalType": "uint256",
          "name": "Strength",
          "type": "uint256"
        },
        {
          "internalType": "uint256",
          "name": "Magic",
          "type": "uint256"
        },
        {
          "internalType": "uint256",
          "name": "Vitality",
          "type": "uint256"
        },
        {
          "internalType": "uint256",
          "name": "Spirit",
          "type": "uint256"
        },
        {
          "internalType": "uint256",
          "name": "Luck",
          "type": "uint256"
        },
        {
          "internalType": "uint256",
          "name": "Speed",
          "type": "uint256"
        }
      ],
      "stateMutability": "view",
      "type": "function",
      "constant": true
    },
    {
      "inputs": [],
      "name": "renounceOwnership",
      "outputs": [],
      "stateMutability": "nonpayable",
      "type": "function"
    },
    {
      "inputs": [
        {
          "internalType": "address",
          "name": "from",
          "type": "address"
        },
        {
          "internalType": "address",
          "name": "to",
          "type": "address"
        },
        {
          "internalType": "uint256",
          "name": "tokenId",
          "type": "uint256"
        }
      ],
      "name": "safeTransferFrom",
      "outputs": [],
      "stateMutability": "nonpayable",
      "type": "function"
    },
    {
      "inputs": [
        {
          "internalType": "address",
          "name": "from",
          "type": "address"
        },
        {
          "internalType": "address",
          "name": "to",
          "type": "address"
        },
        {
          "internalType": "uint256",
          "name": "tokenId",
          "type": "uint256"
        },
        {
          "internalType": "bytes",
          "name": "_data",
          "type": "bytes"
        }
      ],
      "name": "safeTransferFrom",
      "outputs": [],
      "stateMutability": "nonpayable",
      "type": "function"
    },
    {
      "inputs": [
        {
          "internalType": "address",
          "name": "operator",
          "type": "address"
        },
        {
          "internalType": "bool",
          "name": "approved",
          "type": "bool"
        }
      ],
      "name": "setApprovalForAll",
      "outputs": [],
      "stateMutability": "nonpayable",
      "type": "function"
    },
    {
      "inputs": [
        {
          "internalType": "bytes4",
          "name": "interfaceId",
          "type": "bytes4"
        }
      ],
      "name": "supportsInterface",
      "outputs": [
        {
          "internalType": "bool",
          "name": "",
          "type": "bool"
        }
      ],
      "stateMutability": "view",
      "type": "function",
      "constant": true
    },
    {
      "inputs": [],
      "name": "symbol",
      "outputs": [
        {
          "internalType": "string",
          "name": "",
          "type": "string"
        }
      ],
      "stateMutability": "view",
      "type": "function",
      "constant": true
    },
    {
      "inputs": [
        {
          "internalType": "address",
          "name": "from",
          "type": "address"
        },
        {
          "internalType": "address",
          "name": "to",
          "type": "address"
        },
        {
          "internalType": "uint256",
          "name": "tokenId",
          "type": "uint256"
        }
      ],
      "name": "transferFrom",
      "outputs": [],
      "stateMutability": "nonpayable",
      "type": "function"
    },
    {
      "inputs": [
        {
          "internalType": "address",
          "name": "newOwner",
          "type": "address"
        }
      ],
      "name": "transferOwnership",
      "outputs": [],
      "stateMutability": "nonpayable",
      "type": "function"
    },
    {
      "inputs": [
        {
          "internalType": "uint256",
          "name": "tokenId",
          "type": "uint256"
        }
      ],
      "name": "tokenURI",
      "outputs": [
        {
          "internalType": "string",
          "name": "",
          "type": "string"
        }
      ],
      "stateMutability": "view",
      "type": "function",
      "constant": true
    },
    {
      "inputs": [
        {
          "internalType": "uint256",
          "name": "tokenId",
          "type": "uint256"
        },
        {
          "internalType": "string",
          "name": "_tokenURI",
          "type": "string"
        }
      ],
      "name": "setTokenURI",
      "outputs": [],
      "stateMutability": "nonpayable",
      "type": "function"
    },
    {
      "inputs": [
        {
          "internalType": "uint256",
          "name": "_fee",
          "type": "uint256"
        }
      ],
      "name": "updateFee",
      "outputs": [],
      "stateMutability": "nonpayable",
      "type": "function"
    },
    {
      "inputs": [],
      "name": "withdraw",
      "outputs": [],
      "stateMutability": "payable",
      "type": "function",
      "payable": true
    },
    {
      "inputs": [
        {
          "internalType": "string",
          "name": "name",
          "type": "string"
        }
      ],
      "name": "buildPlayer",
      "outputs": [],
      "stateMutability": "nonpayable",
      "type": "function"
    },
    {
      "inputs": [
        {
          "internalType": "string",
          "name": "name",
          "type": "string"
        }
      ],
      "name": "cost",
      "outputs": [],
      "stateMutability": "payable",
      "type": "function",
      "payable": true
    },
    {
      "inputs": [
        {
          "internalType": "address",
          "name": "owner",
          "type": "address"
        }
      ],
      "name": "obtainOwnerPlayers",
      "outputs": [
        {
          "components": [
            {
              "internalType": "string",
              "name": "name",
              "type": "string"
            },
            {
              "internalType": "uint256",
              "name": "Level",
              "type": "uint256"
            },
            {
              "internalType": "uint256",
              "name": "Strength",
              "type": "uint256"
            },
            {
              "internalType": "uint256",
              "name": "Magic",
              "type": "uint256"
            },
            {
              "internalType": "uint256",
              "name": "Vitality",
              "type": "uint256"
            },
            {
              "internalType": "uint256",
              "name": "Spirit",
              "type": "uint256"
            },
            {
              "internalType": "uint256",
              "name": "Luck",
              "type": "uint256"
            },
            {
              "internalType": "uint256",
              "name": "Speed",
              "type": "uint256"
            }
          ],
          "internalType": "struct FinalFantasy7.Player[]",
          "name": "",
          "type": "tuple[]"
        }
      ],
      "stateMutability": "view",
      "type": "function",
      "constant": true
    },
    {
      "inputs": [
        {
          "internalType": "uint256",
          "name": "playerId",
          "type": "uint256"
        }
      ],
      "name": "levelIncrease",
      "outputs": [],
      "stateMutability": "nonpayable",
      "type": "function"
    }
  ],
  "bytecode": "0x608060405266470de4df8200006008553480156200001c57600080fd5b506040518060400160405280600f81526020017f46696e616c2046616e74617379203700000000000000000000000000000000008152506040518060400160405280600381526020017f46463700000000000000000000000000000000000000000000000000000000008152508160009080519060200190620000a1929190620001b1565b508060019080519060200190620000ba929190620001b1565b505050620000dd620000d1620000e360201b60201c565b620000eb60201b60201c565b620002c6565b600033905090565b6000600660009054906101000a900473ffffffffffffffffffffffffffffffffffffffff16905081600660006101000a81548173ffffffffffffffffffffffffffffffffffffffff021916908373ffffffffffffffffffffffffffffffffffffffff1602179055508173ffffffffffffffffffffffffffffffffffffffff168173ffffffffffffffffffffffffffffffffffffffff167f8be0079c531659141344cd1fd0a4f28419497f9722a3daafe3b4186f6b6457e060405160405180910390a35050565b828054620001bf9062000261565b90600052602060002090601f016020900481019282620001e357600085556200022f565b82601f10620001fe57805160ff19168380011785556200022f565b828001600101855582156200022f579182015b828111156200022e57825182559160200191906001019062000211565b5b5090506200023e919062000242565b5090565b5b808211156200025d57600081600090555060010162000243565b5090565b600060028204905060018216806200027a57607f821691505b6020821081141562000291576200029062000297565b5b50919050565b7f4e487b7100000000000000000000000000000000000000000000000000000000600052602260045260246000fd5b6139f180620002d66000396000f3fe60806040526004361061014b5760003560e01c8063715018a6116100b6578063b88d4fde1161006f578063b88d4fde1461046b578063c87b56dd14610494578063e985e9c5146104d1578063f2d89d271461050e578063f2fde38b1461052a578063f71d96cb146105535761014b565b8063715018a61461038357806388c6e0951461039a5780638da5cb5b146103c35780639012c4a8146103ee57806395d89b4114610417578063a22cb465146104425761014b565b806323b872dd1161010857806323b872dd146102845780633372f9d3146102ad5780633ccfd60b146102d657806342842e0e146102e05780636352211e1461030957806370a08231146103465761014b565b806301ffc9a71461015057806303d060271461018d57806306fdde03146101ca578063081812fc146101f5578063095ea7b314610232578063162094c41461025b575b600080fd5b34801561015c57600080fd5b50610177600480360381019061017291906127a0565b610597565b60405161018491906131d0565b60405180910390f35b34801561019957600080fd5b506101b460048036038101906101af91906125f9565b610679565b6040516101c191906131ae565b60405180910390f35b3480156101d657600080fd5b506101df6108eb565b6040516101ec91906131eb565b60405180910390f35b34801561020157600080fd5b5061021c60048036038101906102179190612833565b61097d565b6040516102299190613147565b60405180910390f35b34801561023e57600080fd5b5061025960048036038101906102549190612764565b610a02565b005b34801561026757600080fd5b50610282600480360381019061027d919061285c565b610b1a565b005b34801561029057600080fd5b506102ab60048036038101906102a6919061265e565b610b28565b005b3480156102b957600080fd5b506102d460048036038101906102cf9190612833565b610b88565b005b6102de610c32565b005b3480156102ec57600080fd5b506103076004803603810190610302919061265e565b610d04565b005b34801561031557600080fd5b50610330600480360381019061032b9190612833565b610d24565b60405161033d9190613147565b60405180910390f35b34801561035257600080fd5b5061036d600480360381019061036891906125f9565b610dd6565b60405161037a9190613492565b60405180910390f35b34801561038f57600080fd5b50610398610e8e565b005b3480156103a657600080fd5b506103c160048036038101906103bc91906127f2565b610f16565b005b3480156103cf57600080fd5b506103d86110d6565b6040516103e59190613147565b60405180910390f35b3480156103fa57600080fd5b5061041560048036038101906104109190612833565b611100565b005b34801561042357600080fd5b5061042c611186565b60405161043991906131eb565b60405180910390f35b34801561044e57600080fd5b5061046960048036038101906104649190612728565b611218565b005b34801561047757600080fd5b50610492600480360381019061048d91906126ad565b611399565b005b3480156104a057600080fd5b506104bb60048036038101906104b69190612833565b6113fb565b6040516104c891906131eb565b60405180910390f35b3480156104dd57600080fd5b506104f860048036038101906104f39190612622565b611505565b60405161050591906131d0565b60405180910390f35b610528600480360381019061052391906127f2565b611599565b005b34801561053657600080fd5b50610551600480360381019061054c91906125f9565b6115b4565b005b34801561055f57600080fd5b5061057a60048036038101906105759190612833565b6116ac565b60405161058e98979695949392919061320d565b60405180910390f35b60007f80ac58cd000000000000000000000000000000000000000000000000000000007bffffffffffffffffffffffffffffffffffffffffffffffffffffffff1916827bffffffffffffffffffffffffffffffffffffffffffffffffffffffff1916148061066257507f5b5e139f000000000000000000000000000000000000000000000000000000007bffffffffffffffffffffffffffffffffffffffffffffffffffffffff1916827bffffffffffffffffffffffffffffffffffffffffffffffffffffffff1916145b8061067257506106718261178c565b5b9050919050565b6060600061068683610dd6565b67ffffffffffffffff8111156106c5577f4e487b7100000000000000000000000000000000000000000000000000000000600052604160045260246000fd5b6040519080825280602002602001820160405280156106fe57816020015b6106eb6123d8565b8152602001906001900390816106e35790505b5090506000805b600a805490508110156108e0578473ffffffffffffffffffffffffffffffffffffffff1661073282610d24565b73ffffffffffffffffffffffffffffffffffffffff1614156108cd57600a8181548110610788577f4e487b7100000000000000000000000000000000000000000000000000000000600052603260045260246000fd5b9060005260206000209060080201604051806101000160405290816000820180546107b2906137ab565b80601f01602080910402602001604051908101604052809291908181526020018280546107de906137ab565b801561082b5780601f106108005761010080835404028352916020019161082b565b820191906000526020600020905b81548152906001019060200180831161080e57829003601f168201915b505050505081526020016001820154815260200160028201548152602001600382015481526020016004820154815260200160058201548152602001600682015481526020016007820154815250508383815181106108b3577f4e487b7100000000000000000000000000000000000000000000000000000000600052603260045260246000fd5b602002602001018190525081806108c9906137dd565b9250505b80806108d8906137dd565b915050610705565b508192505050919050565b6060600080546108fa906137ab565b80601f0160208091040260200160405190810160405280929190818152602001828054610926906137ab565b80156109735780601f1061094857610100808354040283529160200191610973565b820191906000526020600020905b81548152906001019060200180831161095657829003601f168201915b5050505050905090565b6000610988826117f6565b6109c7576040517f08c379a00000000000000000000000000000000000000000000000000000000081526004016109be906133d2565b60405180910390fd5b6004600083815260200190815260200160002060009054906101000a900473ffffffffffffffffffffffffffffffffffffffff169050919050565b6000610a0d82610d24565b90508073ffffffffffffffffffffffffffffffffffffffff168373ffffffffffffffffffffffffffffffffffffffff161415610a7e576040517f08c379a0000000000000000000000000000000000000000000000000000000008152600401610a7590613452565b60405180910390fd5b8073ffffffffffffffffffffffffffffffffffffffff16610a9d611862565b73ffffffffffffffffffffffffffffffffffffffff161480610acc5750610acb81610ac6611862565b611505565b5b610b0b576040517f08c379a0000000000000000000000000000000000000000000000000000000008152600401610b0290613352565b60405180910390fd5b610b15838361186a565b505050565b610b248282611923565b5050565b610b39610b33611862565b8261194f565b610b78576040517f08c379a0000000000000000000000000000000000000000000000000000000008152600401610b6f90613472565b60405180910390fd5b610b83838383611a2d565b505050565b3373ffffffffffffffffffffffffffffffffffffffff16610ba882610d24565b73ffffffffffffffffffffffffffffffffffffffff1614610bc857600080fd5b6000600a8281548110610c04577f4e487b7100000000000000000000000000000000000000000000000000000000600052603260045260246000fd5b90600052602060002090600802019050806001016000815480929190610c29906137dd565b91905055505050565b610c3a611862565b73ffffffffffffffffffffffffffffffffffffffff16610c586110d6565b73ffffffffffffffffffffffffffffffffffffffff1614610cae576040517f08c379a0000000000000000000000000000000000000000000000000000000008152600401610ca5906133f2565b60405180910390fd5b6000610cb86110d6565b90508073ffffffffffffffffffffffffffffffffffffffff166108fc479081150290604051600060405180830381858888f19350505050158015610d00573d6000803e3d6000fd5b5050565b610d1f83838360405180602001604052806000815250611399565b505050565b6000806002600084815260200190815260200160002060009054906101000a900473ffffffffffffffffffffffffffffffffffffffff169050600073ffffffffffffffffffffffffffffffffffffffff168173ffffffffffffffffffffffffffffffffffffffff161415610dcd576040517f08c379a0000000000000000000000000000000000000000000000000000000008152600401610dc490613392565b60405180910390fd5b80915050919050565b60008073ffffffffffffffffffffffffffffffffffffffff168273ffffffffffffffffffffffffffffffffffffffff161415610e47576040517f08c379a0000000000000000000000000000000000000000000000000000000008152600401610e3e90613372565b60405180910390fd5b600360008373ffffffffffffffffffffffffffffffffffffffff1673ffffffffffffffffffffffffffffffffffffffff168152602001908152602001600020549050919050565b610e96611862565b73ffffffffffffffffffffffffffffffffffffffff16610eb46110d6565b73ffffffffffffffffffffffffffffffffffffffff1614610f0a576040517f08c379a0000000000000000000000000000000000000000000000000000000008152600401610f01906133f2565b60405180910390fd5b610f146000611c89565b565b6000610f226032611d4f565b90506000610f316103e7611d4f565b90506000610f406103e6611d4f565b90506000610f4f6103e5611d4f565b90506000610f5e6103e4611d4f565b90506000610f6d6103e3611d4f565b90506000610f7c6103e2611d4f565b905060006040518061010001604052808a8152602001898152602001888152602001878152602001868152602001858152602001848152602001838152509050600a819080600181540180825580915050600190039060005260206000209060080201600090919091909150600082015181600001908051906020019061100492919061241d565b506020820151816001015560408201518160020155606082015181600301556080820151816004015560a0820151816005015560c0820151816006015560e08201518160070155505061105933600754611d94565b3373ffffffffffffffffffffffffffffffffffffffff167f3716d243f840589dfb2cd52486afae02ea6e03f5be19786969fc621be8946e37898989898989896040516110ab97969594939291906134ad565b60405180910390a2600760008154809291906110c6906137dd565b9190505550505050505050505050565b6000600660009054906101000a900473ffffffffffffffffffffffffffffffffffffffff16905090565b611108611862565b73ffffffffffffffffffffffffffffffffffffffff166111266110d6565b73ffffffffffffffffffffffffffffffffffffffff161461117c576040517f08c379a0000000000000000000000000000000000000000000000000000000008152600401611173906133f2565b60405180910390fd5b8060088190555050565b606060018054611195906137ab565b80601f01602080910402602001604051908101604052809291908181526020018280546111c1906137ab565b801561120e5780601f106111e35761010080835404028352916020019161120e565b820191906000526020600020905b8154815290600101906020018083116111f157829003601f168201915b5050505050905090565b611220611862565b73ffffffffffffffffffffffffffffffffffffffff168273ffffffffffffffffffffffffffffffffffffffff16141561128e576040517f08c379a000000000000000000000000000000000000000000000000000000000815260040161128590613312565b60405180910390fd5b806005600061129b611862565b73ffffffffffffffffffffffffffffffffffffffff1673ffffffffffffffffffffffffffffffffffffffff16815260200190815260200160002060008473ffffffffffffffffffffffffffffffffffffffff1673ffffffffffffffffffffffffffffffffffffffff16815260200190815260200160002060006101000a81548160ff0219169083151502179055508173ffffffffffffffffffffffffffffffffffffffff16611348611862565b73ffffffffffffffffffffffffffffffffffffffff167f17307eab39ab6107e8899845ad3d59bd9653f200f220920489ca2b5937696c318360405161138d91906131d0565b60405180910390a35050565b6113aa6113a4611862565b8361194f565b6113e9576040517f08c379a00000000000000000000000000000000000000000000000000000000081526004016113e090613472565b60405180910390fd5b6113f584848484611f62565b50505050565b6060600060096000848152602001908152602001600020805461141d906137ab565b80601f0160208091040260200160405190810160405280929190818152602001828054611449906137ab565b80156114965780601f1061146b57610100808354040283529160200191611496565b820191906000526020600020905b81548152906001019060200180831161147957829003601f168201915b5050505050905060006114a7611fbe565b90506000815114156114bd578192505050611500565b6000825111156114f25780826040516020016114da9291906130f7565b60405160208183030381529060405292505050611500565b6114fb84611fd5565b925050505b919050565b6000600560008473ffffffffffffffffffffffffffffffffffffffff1673ffffffffffffffffffffffffffffffffffffffff16815260200190815260200160002060008373ffffffffffffffffffffffffffffffffffffffff1673ffffffffffffffffffffffffffffffffffffffff16815260200190815260200160002060009054906101000a900460ff16905092915050565b6008543410156115a857600080fd5b6115b181610f16565b50565b6115bc611862565b73ffffffffffffffffffffffffffffffffffffffff166115da6110d6565b73ffffffffffffffffffffffffffffffffffffffff1614611630576040517f08c379a0000000000000000000000000000000000000000000000000000000008152600401611627906133f2565b60405180910390fd5b600073ffffffffffffffffffffffffffffffffffffffff168173ffffffffffffffffffffffffffffffffffffffff1614156116a0576040517f08c379a0000000000000000000000000000000000000000000000000000000008152600401611697906132b2565b60405180910390fd5b6116a981611c89565b50565b600a81815481106116bc57600080fd5b90600052602060002090600802016000915090508060000180546116df906137ab565b80601f016020809104026020016040519081016040528092919081815260200182805461170b906137ab565b80156117585780601f1061172d57610100808354040283529160200191611758565b820191906000526020600020905b81548152906001019060200180831161173b57829003601f168201915b5050505050908060010154908060020154908060030154908060040154908060050154908060060154908060070154905088565b60007f01ffc9a7000000000000000000000000000000000000000000000000000000007bffffffffffffffffffffffffffffffffffffffffffffffffffffffff1916827bffffffffffffffffffffffffffffffffffffffffffffffffffffffff1916149050919050565b60008073ffffffffffffffffffffffffffffffffffffffff166002600084815260200190815260200160002060009054906101000a900473ffffffffffffffffffffffffffffffffffffffff1673ffffffffffffffffffffffffffffffffffffffff1614159050919050565b600033905090565b816004600083815260200190815260200160002060006101000a81548173ffffffffffffffffffffffffffffffffffffffff021916908373ffffffffffffffffffffffffffffffffffffffff160217905550808273ffffffffffffffffffffffffffffffffffffffff166118dd83610d24565b73ffffffffffffffffffffffffffffffffffffffff167f8c5be1e5ebec7d5bd14f71427d1e84f3dd0314c0f7b2291e5b200ac8c7c3b92560405160405180910390a45050565b8060096000848152602001908152602001600020908051906020019061194a92919061241d565b505050565b600061195a826117f6565b611999576040517f08c379a000000000000000000000000000000000000000000000000000000000815260040161199090613332565b60405180910390fd5b60006119a483610d24565b90508073ffffffffffffffffffffffffffffffffffffffff168473ffffffffffffffffffffffffffffffffffffffff161480611a1357508373ffffffffffffffffffffffffffffffffffffffff166119fb8461097d565b73ffffffffffffffffffffffffffffffffffffffff16145b80611a245750611a238185611505565b5b91505092915050565b8273ffffffffffffffffffffffffffffffffffffffff16611a4d82610d24565b73ffffffffffffffffffffffffffffffffffffffff1614611aa3576040517f08c379a0000000000000000000000000000000000000000000000000000000008152600401611a9a90613412565b60405180910390fd5b600073ffffffffffffffffffffffffffffffffffffffff168273ffffffffffffffffffffffffffffffffffffffff161415611b13576040517f08c379a0000000000000000000000000000000000000000000000000000000008152600401611b0a906132f2565b60405180910390fd5b611b1e83838361207c565b611b2960008261186a565b6001600360008573ffffffffffffffffffffffffffffffffffffffff1673ffffffffffffffffffffffffffffffffffffffff1681526020019081526020016000206000828254611b7991906136c1565b925050819055506001600360008473ffffffffffffffffffffffffffffffffffffffff1673ffffffffffffffffffffffffffffffffffffffff1681526020019081526020016000206000828254611bd0919061363a565b92505081905550816002600083815260200190815260200160002060006101000a81548173ffffffffffffffffffffffffffffffffffffffff021916908373ffffffffffffffffffffffffffffffffffffffff160217905550808273ffffffffffffffffffffffffffffffffffffffff168473ffffffffffffffffffffffffffffffffffffffff167fddf252ad1be2c89b69c2b068fc378daa952ba7f163c4a11628f55a4df523b3ef60405160405180910390a4505050565b6000600660009054906101000a900473ffffffffffffffffffffffffffffffffffffffff16905081600660006101000a81548173ffffffffffffffffffffffffffffffffffffffff021916908373ffffffffffffffffffffffffffffffffffffffff1602179055508173ffffffffffffffffffffffffffffffffffffffff168173ffffffffffffffffffffffffffffffffffffffff167f8be0079c531659141344cd1fd0a4f28419497f9722a3daafe3b4186f6b6457e060405160405180910390a35050565b6000804233604051602001611d6592919061311b565b6040516020818303038152906040528051906020012060001c90508281611d8c9190613854565b915050919050565b600073ffffffffffffffffffffffffffffffffffffffff168273ffffffffffffffffffffffffffffffffffffffff161415611e04576040517f08c379a0000000000000000000000000000000000000000000000000000000008152600401611dfb906133b2565b60405180910390fd5b611e0d816117f6565b15611e4d576040517f08c379a0000000000000000000000000000000000000000000000000000000008152600401611e44906132d2565b60405180910390fd5b611e596000838361207c565b6001600360008473ffffffffffffffffffffffffffffffffffffffff1673ffffffffffffffffffffffffffffffffffffffff1681526020019081526020016000206000828254611ea9919061363a565b92505081905550816002600083815260200190815260200160002060006101000a81548173ffffffffffffffffffffffffffffffffffffffff021916908373ffffffffffffffffffffffffffffffffffffffff160217905550808273ffffffffffffffffffffffffffffffffffffffff16600073ffffffffffffffffffffffffffffffffffffffff167fddf252ad1be2c89b69c2b068fc378daa952ba7f163c4a11628f55a4df523b3ef60405160405180910390a45050565b611f6d848484611a2d565b611f7984848484612081565b611fb8576040517f08c379a0000000000000000000000000000000000000000000000000000000008152600401611faf90613292565b60405180910390fd5b50505050565b606060405180602001604052806000815250905090565b6060611fe0826117f6565b61201f576040517f08c379a000000000000000000000000000000000000000000000000000000000815260040161201690613432565b60405180910390fd5b6000612029611fbe565b905060008151116120495760405180602001604052806000815250612074565b8061205384612218565b6040516020016120649291906130f7565b6040516020818303038152906040525b915050919050565b505050565b60006120a28473ffffffffffffffffffffffffffffffffffffffff166123c5565b1561220b578373ffffffffffffffffffffffffffffffffffffffff1663150b7a026120cb611862565b8786866040518563ffffffff1660e01b81526004016120ed9493929190613162565b602060405180830381600087803b15801561210757600080fd5b505af192505050801561213857506040513d601f19601f8201168201806040525081019061213591906127c9565b60015b6121bb573d8060008114612168576040519150601f19603f3d011682016040523d82523d6000602084013e61216d565b606091505b506000815114156121b3576040517f08c379a00000000000000000000000000000000000000000000000000000000081526004016121aa90613292565b60405180910390fd5b805181602001fd5b63150b7a0260e01b7bffffffffffffffffffffffffffffffffffffffffffffffffffffffff1916817bffffffffffffffffffffffffffffffffffffffffffffffffffffffff191614915050612210565b600190505b949350505050565b60606000821415612260576040518060400160405280600181526020017f300000000000000000000000000000000000000000000000000000000000000081525090506123c0565b600082905060005b6000821461229257808061227b906137dd565b915050600a8261228b9190613690565b9150612268565b60008167ffffffffffffffff8111156122d4577f4e487b7100000000000000000000000000000000000000000000000000000000600052604160045260246000fd5b6040519080825280601f01601f1916602001820160405280156123065781602001600182028036833780820191505090505b5090505b600085146123b95760018261231f91906136c1565b9150600a8561232e9190613854565b603061233a919061363a565b60f81b818381518110612376577f4e487b7100000000000000000000000000000000000000000000000000000000600052603260045260246000fd5b60200101907effffffffffffffffffffffffffffffffffffffffffffffffffffffffffffff1916908160001a905350600a856123b29190613690565b945061230a565b8093505050505b919050565b600080823b905060008111915050919050565b60405180610100016040528060608152602001600081526020016000815260200160008152602001600081526020016000815260200160008152602001600081525090565b828054612429906137ab565b90600052602060002090601f01602090048101928261244b5760008555612492565b82601f1061246457805160ff1916838001178555612492565b82800160010185558215612492579182015b82811115612491578251825591602001919060010190612476565b5b50905061249f91906124a3565b5090565b5b808211156124bc5760008160009055506001016124a4565b5090565b60006124d36124ce8461354d565b61351c565b9050828152602081018484840111156124eb57600080fd5b6124f6848285613769565b509392505050565b600061251161250c8461357d565b61351c565b90508281526020810184848401111561252957600080fd5b612534848285613769565b509392505050565b60008135905061254b8161395f565b92915050565b60008135905061256081613976565b92915050565b6000813590506125758161398d565b92915050565b60008151905061258a8161398d565b92915050565b600082601f8301126125a157600080fd5b81356125b18482602086016124c0565b91505092915050565b600082601f8301126125cb57600080fd5b81356125db8482602086016124fe565b91505092915050565b6000813590506125f3816139a4565b92915050565b60006020828403121561260b57600080fd5b60006126198482850161253c565b91505092915050565b6000806040838503121561263557600080fd5b60006126438582860161253c565b92505060206126548582860161253c565b9150509250929050565b60008060006060848603121561267357600080fd5b60006126818682870161253c565b93505060206126928682870161253c565b92505060406126a3868287016125e4565b9150509250925092565b600080600080608085870312156126c357600080fd5b60006126d18782880161253c565b94505060206126e28782880161253c565b93505060406126f3878288016125e4565b925050606085013567ffffffffffffffff81111561271057600080fd5b61271c87828801612590565b91505092959194509250565b6000806040838503121561273b57600080fd5b60006127498582860161253c565b925050602061275a85828601612551565b9150509250929050565b6000806040838503121561277757600080fd5b60006127858582860161253c565b9250506020612796858286016125e4565b9150509250929050565b6000602082840312156127b257600080fd5b60006127c084828501612566565b91505092915050565b6000602082840312156127db57600080fd5b60006127e98482850161257b565b91505092915050565b60006020828403121561280457600080fd5b600082013567ffffffffffffffff81111561281e57600080fd5b61282a848285016125ba565b91505092915050565b60006020828403121561284557600080fd5b6000612853848285016125e4565b91505092915050565b6000806040838503121561286f57600080fd5b600061287d858286016125e4565b925050602083013567ffffffffffffffff81111561289a57600080fd5b6128a6858286016125ba565b9150509250929050565b60006128bc8383613012565b905092915050565b6128cd816136f5565b82525050565b6128e46128df826136f5565b613826565b82525050565b60006128f5826135bd565b6128ff81856135eb565b935083602082028501612911856135ad565b8060005b8581101561294d578484038952815161292e85826128b0565b9450612939836135de565b925060208a01995050600181019050612915565b50829750879550505050505092915050565b61296881613707565b82525050565b6000612979826135c8565b61298381856135fc565b9350612993818560208601613778565b61299c81613941565b840191505092915050565b60006129b2826135d3565b6129bc818561360d565b93506129cc818560208601613778565b6129d581613941565b840191505092915050565b60006129eb826135d3565b6129f5818561361e565b9350612a05818560208601613778565b612a0e81613941565b840191505092915050565b6000612a24826135d3565b612a2e818561362f565b9350612a3e818560208601613778565b80840191505092915050565b6000612a5760328361361e565b91507f4552433732313a207472616e7366657220746f206e6f6e20455243373231526560008301527f63656976657220696d706c656d656e74657200000000000000000000000000006020830152604082019050919050565b6000612abd60268361361e565b91507f4f776e61626c653a206e6577206f776e657220697320746865207a65726f206160008301527f64647265737300000000000000000000000000000000000000000000000000006020830152604082019050919050565b6000612b23601c8361361e565b91507f4552433732313a20746f6b656e20616c7265616479206d696e746564000000006000830152602082019050919050565b6000612b6360248361361e565b91507f4552433732313a207472616e7366657220746f20746865207a65726f2061646460008301527f72657373000000000000000000000000000000000000000000000000000000006020830152604082019050919050565b6000612bc960198361361e565b91507f4552433732313a20617070726f766520746f2063616c6c6572000000000000006000830152602082019050919050565b6000612c09602c8361361e565b91507f4552433732313a206f70657261746f7220717565727920666f72206e6f6e657860008301527f697374656e7420746f6b656e00000000000000000000000000000000000000006020830152604082019050919050565b6000612c6f60388361361e565b91507f4552433732313a20617070726f76652063616c6c6572206973206e6f74206f7760008301527f6e6572206e6f7220617070726f76656420666f7220616c6c00000000000000006020830152604082019050919050565b6000612cd5602a8361361e565b91507f4552433732313a2062616c616e636520717565727920666f7220746865207a6560008301527f726f2061646472657373000000000000000000000000000000000000000000006020830152604082019050919050565b6000612d3b60298361361e565b91507f4552433732313a206f776e657220717565727920666f72206e6f6e657869737460008301527f656e7420746f6b656e00000000000000000000000000000000000000000000006020830152604082019050919050565b6000612da160208361361e565b91507f4552433732313a206d696e7420746f20746865207a65726f20616464726573736000830152602082019050919050565b6000612de1602c8361361e565b91507f4552433732313a20617070726f76656420717565727920666f72206e6f6e657860008301527f697374656e7420746f6b656e00000000000000000000000000000000000000006020830152604082019050919050565b6000612e4760208361361e565b91507f4f776e61626c653a2063616c6c6572206973206e6f7420746865206f776e65726000830152602082019050919050565b6000612e8760298361361e565b91507f4552433732313a207472616e73666572206f6620746f6b656e2074686174206960008301527f73206e6f74206f776e00000000000000000000000000000000000000000000006020830152604082019050919050565b6000612eed602f8361361e565b91507f4552433732314d657461646174613a2055524920717565727920666f72206e6f60008301527f6e6578697374656e7420746f6b656e00000000000000000000000000000000006020830152604082019050919050565b6000612f5360218361361e565b91507f4552433732313a20617070726f76616c20746f2063757272656e74206f776e6560008301527f72000000000000000000000000000000000000000000000000000000000000006020830152604082019050919050565b6000612fb960318361361e565b91507f4552433732313a207472616e736665722063616c6c6572206973206e6f74206f60008301527f776e6572206e6f7220617070726f7665640000000000000000000000000000006020830152604082019050919050565b600061010083016000830151848203600086015261303082826129a7565b915050602083015161304560208601826130c2565b50604083015161305860408601826130c2565b50606083015161306b60608601826130c2565b50608083015161307e60808601826130c2565b5060a083015161309160a08601826130c2565b5060c08301516130a460c08601826130c2565b5060e08301516130b760e08601826130c2565b508091505092915050565b6130cb8161375f565b82525050565b6130da8161375f565b82525050565b6130f16130ec8261375f565b61384a565b82525050565b60006131038285612a19565b915061310f8284612a19565b91508190509392505050565b600061312782856130e0565b60208201915061313782846128d3565b6014820191508190509392505050565b600060208201905061315c60008301846128c4565b92915050565b600060808201905061317760008301876128c4565b61318460208301866128c4565b61319160408301856130d1565b81810360608301526131a3818461296e565b905095945050505050565b600060208201905081810360008301526131c881846128ea565b905092915050565b60006020820190506131e5600083018461295f565b92915050565b6000602082019050818103600083015261320581846129e0565b905092915050565b6000610100820190508181036000830152613228818b6129e0565b9050613237602083018a6130d1565b61324460408301896130d1565b61325160608301886130d1565b61325e60808301876130d1565b61326b60a08301866130d1565b61327860c08301856130d1565b61328560e08301846130d1565b9998505050505050505050565b600060208201905081810360008301526132ab81612a4a565b9050919050565b600060208201905081810360008301526132cb81612ab0565b9050919050565b600060208201905081810360008301526132eb81612b16565b9050919050565b6000602082019050818103600083015261330b81612b56565b9050919050565b6000602082019050818103600083015261332b81612bbc565b9050919050565b6000602082019050818103600083015261334b81612bfc565b9050919050565b6000602082019050818103600083015261336b81612c62565b9050919050565b6000602082019050818103600083015261338b81612cc8565b9050919050565b600060208201905081810360008301526133ab81612d2e565b9050919050565b600060208201905081810360008301526133cb81612d94565b9050919050565b600060208201905081810360008301526133eb81612dd4565b9050919050565b6000602082019050818103600083015261340b81612e3a565b9050919050565b6000602082019050818103600083015261342b81612e7a565b9050919050565b6000602082019050818103600083015261344b81612ee0565b9050919050565b6000602082019050818103600083015261346b81612f46565b9050919050565b6000602082019050818103600083015261348b81612fac565b9050919050565b60006020820190506134a760008301846130d1565b92915050565b600060e0820190506134c2600083018a6130d1565b6134cf60208301896130d1565b6134dc60408301886130d1565b6134e960608301876130d1565b6134f660808301866130d1565b61350360a08301856130d1565b61351060c08301846130d1565b98975050505050505050565b6000604051905081810181811067ffffffffffffffff8211171561354357613542613912565b5b8060405250919050565b600067ffffffffffffffff82111561356857613567613912565b5b601f19601f8301169050602081019050919050565b600067ffffffffffffffff82111561359857613597613912565b5b601f19601f8301169050602081019050919050565b6000819050602082019050919050565b600081519050919050565b600081519050919050565b600081519050919050565b6000602082019050919050565b600082825260208201905092915050565b600082825260208201905092915050565b600082825260208201905092915050565b600082825260208201905092915050565b600081905092915050565b60006136458261375f565b91506136508361375f565b9250827fffffffffffffffffffffffffffffffffffffffffffffffffffffffffffffffff0382111561368557613684613885565b5b828201905092915050565b600061369b8261375f565b91506136a68361375f565b9250826136b6576136b56138b4565b5b828204905092915050565b60006136cc8261375f565b91506136d78361375f565b9250828210156136ea576136e9613885565b5b828203905092915050565b60006137008261373f565b9050919050565b60008115159050919050565b60007fffffffff0000000000000000000000000000000000000000000000000000000082169050919050565b600073ffffffffffffffffffffffffffffffffffffffff82169050919050565b6000819050919050565b82818337600083830152505050565b60005b8381101561379657808201518184015260208101905061377b565b838111156137a5576000848401525b50505050565b600060028204905060018216806137c357607f821691505b602082108114156137d7576137d66138e3565b5b50919050565b60006137e88261375f565b91507fffffffffffffffffffffffffffffffffffffffffffffffffffffffffffffffff82141561381b5761381a613885565b5b600182019050919050565b600061383182613838565b9050919050565b600061384382613952565b9050919050565b6000819050919050565b600061385f8261375f565b915061386a8361375f565b92508261387a576138796138b4565b5b828206905092915050565b7f4e487b7100000000000000000000000000000000000000000000000000000000600052601160045260246000fd5b7f4e487b7100000000000000000000000000000000000000000000000000000000600052601260045260246000fd5b7f4e487b7100000000000000000000000000000000000000000000000000000000600052602260045260246000fd5b7f4e487b7100000000000000000000000000000000000000000000000000000000600052604160045260246000fd5b6000601f19601f8301169050919050565b60008160601b9050919050565b613968816136f5565b811461397357600080fd5b50565b61397f81613707565b811461398a57600080fd5b50565b61399681613713565b81146139a157600080fd5b50565b6139ad8161375f565b81146139b857600080fd5b5056fea26469706673582212201aebae5848a3b658199b2e0c2e318ac9e014aa716f4be3abf583529ffb0693ed64736f6c63430008000033",
  "immutableReferences": {},
  "source": "// SPDX-License-Identifier: UNLICENSED\npragma solidity ^0.8.0;\nimport '@openzeppelin/contracts/token/ERC721/ERC721.sol';\nimport '@openzeppelin/contracts/access/Ownable.sol';\n\ncontract FinalFantasy7 is ERC721, Ownable {\n\tuint256 Total;\n\tuint256 Fee = 0.02 ether;\n\n\tmapping(uint256 => string) private _tokenURIs;\n\n\tstruct Player{string name; uint256 Level; uint256 Strength; uint256 Magic;  \n\t\tuint256 Vitality; uint256 Spirit; uint256 Luck; uint256 Speed;}\n\n\t\tPlayer[] public players;\n\n\tevent CreatePlayer(address indexed owner, uint256 Level, uint256 Strength, uint256 Magic,  \n\t\tuint256 Vitality, uint256 Spirit, uint256 Luck, uint256 Speed);\n\n\tconstructor() ERC721('Final Fantasy 7', 'FF7') {\n\t}\n\tfunction tokenURI(uint256 tokenId) public view virtual override returns (string memory) {\n        string memory _tokenURI = _tokenURIs[tokenId];\n        string memory base = _baseURI();\n        if (bytes(base).length == 0) {\n            return _tokenURI;\n        }\n        if (bytes(_tokenURI).length > 0) {\n            return string(abi.encodePacked(base, _tokenURI));\n        }\n        return super.tokenURI(tokenId);\n    }\n    function setTokenURI(uint256 tokenId, string memory _tokenURI) public {\n        baseTokenURI(tokenId, _tokenURI);\n    }\n    function baseTokenURI(uint256 tokenId, string memory _tokenURI) internal virtual {\n        _tokenURIs[tokenId] = _tokenURI;\n    }\n\tfunction rNumber(uint256 mod) internal view returns(uint256) {\n\t\tuint256 randomNum = uint256(keccak256(abi.encodePacked(block.timestamp, msg.sender)));\n\t\treturn randomNum % mod;\n\t}\n\tfunction updateFee(uint256 _fee) external onlyOwner() {\n\t\tFee = _fee;\n\t}\n\tfunction withdraw() public payable onlyOwner() {\n\t\taddress payable owner = payable(owner());\n\t\towner.transfer(address(this).balance);\n\t}\n\tfunction buildPlayer(string memory name) public {\n\t\tuint256 rLevel = rNumber(50);\n\t\tuint256 rStrength = rNumber(999);\n\t\tuint256 rMagic = rNumber(998);\n\t\tuint256 rVitality = rNumber(997);\n\t\tuint256 rSpirit = rNumber(996);\n\t\tuint256 rLuck = rNumber(995);\n\t\tuint256 rSpeed = rNumber(994);\n\t\tPlayer memory addPlayer = Player(name,rLevel, rStrength, rMagic, rVitality, rSpirit, rLuck, rSpeed);\n\t\tplayers.push(addPlayer);\n\t\t_mint(msg.sender, Total);\n\t\temit CreatePlayer(msg.sender, rLevel, rStrength, rMagic, rVitality, rSpirit, rLuck, rSpeed);\n\t\tTotal++;\n\t}\n\tfunction cost(string memory name) public payable {\n\t\trequire(msg.value >= Fee);\n\t\tbuildPlayer(name);\n\t}\n\tfunction obtainPlayers() internal view returns (Player[] memory) {\n\t\treturn players;\n\t}\n\tfunction obtainOwnerPlayers(address owner) public view returns(Player[] memory) {\n\t\tPlayer[] memory result = new Player[](balanceOf(owner));\n\t\tuint256 total = 0;\n\t\tfor(uint256 i = 0; i < players.length; i++) {\n\t\t\tif(ownerOf(i) == owner) {\n\t\t\t\tresult[total] = players[i];\n\t\t\t\ttotal++;\n\t\t\t}\n\t\t}\n\t\treturn result;\n\t}\n\tfunction levelIncrease(uint256 playerId) public {\n\t\trequire(ownerOf(playerId) == msg.sender);\n\t\tPlayer storage player = players[playerId];\n\t\tplayer.Level++;\n\t}\n}",
  "sourcePath": "/Users/damiana/Documents/Coding Projects/_MBrody22/Final Fantasy 7 NFTs/contracts/FinalFantasy7.sol",
  "compiler": {
    "name": "solc",
    "version": "0.8.0+commit.c7dfd78e.Emscripten.clang"
  },
  "schemaVersion": "3.4.1",
  "updatedAt": "2021-08-14T18:01:16.418Z",
  "networkType": "ethereum",
  "devdoc": {
    "kind": "dev",
    "methods": {
      "approve(address,uint256)": {
        "details": "See {IERC721-approve}."
      },
      "balanceOf(address)": {
        "details": "See {IERC721-balanceOf}."
      },
      "getApproved(uint256)": {
        "details": "See {IERC721-getApproved}."
      },
      "isApprovedForAll(address,address)": {
        "details": "See {IERC721-isApprovedForAll}."
      },
      "name()": {
        "details": "See {IERC721Metadata-name}."
      },
      "owner()": {
        "details": "Returns the address of the current owner."
      },
      "ownerOf(uint256)": {
        "details": "See {IERC721-ownerOf}."
      },
      "renounceOwnership()": {
        "details": "Leaves the contract without owner. It will not be possible to call `onlyOwner` functions anymore. Can only be called by the current owner. NOTE: Renouncing ownership will leave the contract without an owner, thereby removing any functionality that is only available to the owner."
      },
      "safeTransferFrom(address,address,uint256)": {
        "details": "See {IERC721-safeTransferFrom}."
      },
      "safeTransferFrom(address,address,uint256,bytes)": {
        "details": "See {IERC721-safeTransferFrom}."
      },
      "setApprovalForAll(address,bool)": {
        "details": "See {IERC721-setApprovalForAll}."
      },
      "supportsInterface(bytes4)": {
        "details": "See {IERC165-supportsInterface}."
      },
      "symbol()": {
        "details": "See {IERC721Metadata-symbol}."
      },
      "tokenURI(uint256)": {
        "details": "See {IERC721Metadata-tokenURI}."
      },
      "transferFrom(address,address,uint256)": {
        "details": "See {IERC721-transferFrom}."
      },
      "transferOwnership(address)": {
        "details": "Transfers ownership of the contract to a new account (`newOwner`). Can only be called by the current owner."
      }
    },
    "version": 1
  },
  "userdoc": {
    "kind": "user",
    "methods": {},
    "version": 1
  }
}